:020000022000DC
:107000000000042029AF030069AF03006BAF030049
:107010006DAF03006FAF030071AF0300000000000D
:10702000000000000000000000000000A5AE03000A
:1070300075AF030000000000C5AE030079AF030088
:107040007DB103007BAF03007BAF0300FD71030044
:10705000B17203007BAF03007BAF03007BAF030083
:107060007BAF03007BAF03007BAF03007BAF03006C
:107070007BAF03007BAF03007BAF03007BAF03005C
:107080007BAF0300F5AB03007BAF03007BAF0300D6
:107090007BAF03007BAF030025BC02007BAF030086
:1070A0007BAF03007BAF03007BAF03007BAF03002C
:1070B0007BAF03007BAF0300000000000000000076
:1070C0007BAF03007BAF03007BAF030069B203001B
:1070D0007BAF03007BAF03007BAF030055D1020001
:1070E0007BAF03007BAF03007BAF03000000000019
:1070F000000000007BAF030000000000E1B20300CD
:10710000000000000000000000000000000000007F
:10711000000000000000000000000000000000006F
:10712000000000000000000000000000000000005F
:10713000000000000000000000000000000000004F
:10714000000000000000000000000000000000003F
:10715000000000000000000000000000000000002F
:10716000000000000000000000000000000000001F
:10717000000000000000000000000000000000000F
:1071800000000000000000000000000000000000FF
:1071900000000000000000000000000000000000EF
:1071A00000000000000000000000000000000000DF
:1071B00000000000000000000000000000000000CF
:1071C00000000000000000000000000000000000BF
:1071D00000000000000000000000000000000000AF
:1071E000000000000000000000000000000000009F
:1071F000000000000000000000000000000000008F
:10720000F1EE103A43F08073E1EE103A704700BFA0
:1072100010B5054C237833B9044B13B10448AFF3D0
:1072200000800123237010BDCC630020000000000B
:107230006475040008B5034B1BB103490348AFF361
:10724000008008BD00000000D063002064750400C9
:10725000154B002B08BF134B9D46A3F5803A002128
:107260008B460F461348144A121A1AF027FB0F4B8D
:10727000002B00D098470E4B002B00D098470020E1
:10728000002104000D000D48002802D00C48AFF387
:1072900000801AF0A9FA2000290013F09DFE1AF0D0
:1072A0007DFA00BF0000080000000420000000007C
:1072B00000000000CC63002078BC0020000000002B
:1072C00000000000704700BF704700BF10B50A4CB7
:1072D000142B04F10400A8BF142311461A460023FE
:1072E0006360C0E90133C0E9033303751AF0BEFAE5
:1072F000024B01221A7010BDD0720020C2870020FC
:10730000032B05D903491268034B0A6001221A7046
:10731000704700BF5C750020C0870020012B08D992
:10732000517813780348044A43EA0123012103807A
:107330001170704798750020C1870020012B05D976
:1073400051781378024A43EA01231380704700BF43
:1073500070750020012B0ED9137807490748032BBD
:10736000A8BF03234B765378003B4FF0010218BFB0
:1073700001238B7602707047D0720020C3870020F3
:10738000032B00D870472DE9F8430E46176813F019
:1073900019FC224B224A1B88148803F500731B1B1F
:1073A0005A42C2F30802C3F3080358BF53429BB2C8
:1073B0004CB3013C1C44DFF870E0DFF868C0A4B2B5
:1073C000002201E0282A27D0C3F3080505EB450574
:1073D00003F101085EF8150087420EEB450502EB4C
:1073E000420108D80CEB4109AD884CF8110001327C
:1073F00092B2A9F80450A3421FFA88F3E2D102EB3B
:1074000042025400A4B213F0E7FB2246304605497D
:10741000BDE8F84302F014BAF024F4E7A287002094
:10742000A0870020E86F0020A07B0020F0B59DB071
:107430002D4903A809F0F6FF2C4903A800220AF001
:107440009FF860B90446284903A809F0EBFF2749D3
:10745000002203A80AF094F8A0B91DB0F0BD03A85B
:107460000AF02CF9044603A80AF044F92048A0FBCE
:107470000434A008B0F5007F38BF4FF40070A0F5C9
:107480000074E0E704EB4404610003A80AF0DCF8B0
:10749000184D194C194E1BE013F094FB2B883288C1
:1074A0000198BDF808C003EB4301B2F5007F03F17A
:1074B000010304EB4107C3F3080338BF013244F86A
:1074C00011002B80A7F804C038BF328013F084FB72
:1074D000062201A903A80AF097F80628DCD003A821
:1074E0000AF008F91DB0F0BD9C9C0020A8470400DC
:1074F000ABAAAAAAA2870020A07B0020A087002018
:1075000070B511F05BFA434B1A689042424A37D388
:10751000D2E90045414E1860D6E90023241845F110
:10752000000552EA030103D09D4208BF94424FD2A6
:107530003B4ED6E9002352EA030129D1394E337874
:10754000EBB1394B1B68E41A952C3BD9B4F5167F87
:107550000FD2C4EB04243549A4F515446A3CA1FBC1
:1075600004346FEA1421C9B2BDE87040032014F05E
:10757000A7B90021032014F0A3F90023337070BDD4
:10758000D2E900160C1C46F10105C2E90045C1E72D
:107590009D4208BF94422ED22046FA22002329465B
:1075A00019F03AFF002400F001022346134318D1DA
:1075B000DC21022014F084F9BDE87040FF21032093
:1075C00014F07EB9BDE87040FF21032014F078B9B3
:1075D0000021022014F074F900220023C6E90023E0
:1075E000A6E72146022014F06BF921460320BDE8EE
:1075F000704014F065B90022002300210220C6E982
:10760000002314F05DF9BDE870400021032014F060
:1076100057B900BF1071002008710020907500203C
:10762000787500208075002088750020C5B3A29170
:1076300038B5314BB3F81B40ECB107EE904AD3F8A4
:107640001D30DFED2E6AF8EEE77A06EE103A86EE90
:10765000276AB7EE007A37EE467AF6EE007AE7EE62
:10766000267AFDEEE77A17EE904A002C19DB642C9F
:10767000A8BF6424E4B2224D2248214602F0FCF85F
:107680002B78A34200D138BD1F4804F099FA40BBC3
:107690002B78103BDBB2EE2B01D80F2C03D92C70CA
:1076A00038BD0024E7E7C821032014F009F9502071
:1076B00011F090F90021032014F002F9782011F064
:1076C00089F9C821032014F0FBF8502011F082F949
:1076D0000021032014F0F4F8782011F07BF92C70CD
:1076E000DEE7084802F0E8F80028D1D02146054836
:1076F00002F02CF9CCE700BFD07200200000C84295
:1077000051600020F4720020DC87002070B5032057
:1077100014F00AFA0C2014F001FA082500242020A5
:1077200014F032FA013D0444F9D1E30807EE903A2F
:107730009FED437AF8EEE77A40F6E44267EE877A07
:10774000FCEEE77A17EE903A9BB2934227D940F6C7
:10775000AB52934254D9B3F5616F55D340F673627F
:10776000934255D940F6A562934255D940F6D76267
:10777000934229D940F60972934251D940F63B729F
:10778000934251D9B3F57A6F52D341F20302934237
:1077900052D941F26702934288BF64252CD9294C03
:1077A0002378AB4200D170BD2748294604F08EFAF9
:1077B000264804F005FA08B9257070BD224829460C
:1077C00004F08CFA2570F8E7052140F6D862204CC9
:1077D000204E481E615C255C36F81000194C491B90
:1077E0001B1A03FB01F3121AB3FBF2F31D442378B7
:1077F000EDB2AB42D7D0D7E70A2141F26802E6E703
:10780000012140F6AC52E2E702214FF46162DEE76B
:10781000032140F67462DAE7042140F6A662D6E757
:10782000062140F60A72D2E7072140F63C72CEE705
:1078300008214FF47A62CAE7092141F20402C6E73F
:10784000F11CDE3F5060002018710020DC87002012
:107850006C4804007848040010B59AB0254901A886
:1078600009F0E0FD244901A8002209F089FE08B9C9
:107870001AB010BD01A809F021FF044601A809F0C3
:1078800039FF40F605439C42F2D91A4901A809F094
:10789000C9FD1949002201A809F072FE0028E7D0AD
:1078A0001649A1FB04318908A1F5007101EB4101E2
:1078B000490001A809F0C8FE4FF44062104901A830
:1078C00009F0A2FE01A809F015FF0B49094809F0CB
:1078D0009BFC0949012201A809F052FE0028C7D0EB
:1078E00007494FF4406201A809F0A8FC01A809F07B
:1078F00001FFBDE79C9C0020A8470400ABAAAAAAF0
:10790000E863002070B59AB0044613F05BF927488D
:10791000274A0388256803EB4301013342F81150DD
:10792000244DA68802EB410229889680B1F5007F9C
:1079300038BF0131C3F3080338BF2980038013F037
:107940004BF91D4901A809F06DFD1C4901A8002251
:1079500009F016FE58B9184901A809F063FD174946
:10796000012201A809F00CFE70B91AB070BD01A87F
:1079700009F0A4FE054601A809F0BCFEB5F5C05FFC
:10798000E9D3FFF769FFE6E701A809F097FE014692
:1079900001A809F059FE2146062201A809F04EFC73
:1079A00001A809F0A7FE1AB070BD00BFA287002091
:1079B000A07B0020A08700209C9C0020A8470400FA
:1079C00070B5294CB2B021220021204619F076FF73
:1079D0002649684609F026FD25496846002209F037
:1079E000CFFD002836D1234B22689A4201D132B014
:1079F00070BD214D214923601422002328466B606D
:107A00006360C5E902332B612B751AF03AFE00233F
:107A1000C4F81D30022316496376012623771348E4
:107A2000A6765823E37609F0EFFB104919A809F070
:107A3000F9FC0F49324619A809F0A2FD0028D6D05A
:107A4000291F212219A809F0F9FB19A809F052FEF3
:107A500032B070BD21222146684609F0D5FD684646
:107A600009F048FEBFE700BFD07200209C9C0020B8
:107A7000B44704000100564ED4720020C0470400F1
:107A800030B52DED028B3D4B9DB01C78ADF8082034
:107A9000B0EE408A84BB3A4D2C88FF2C19D9394C62
:107AA000DFED397AD4F81D20384D07EE102AA8EE04
:107AB000277A2B78013317EE102ADBB2092BC4F892
:107AC0001D203BD82B70FFF7B3FD1DB0BDEC028B22
:107AD00030BD4FF47A72002319F09EFC04EB44028F
:107AE0002B4BBDF8081043F8120003EB420301349E
:107AF00001902C809980D2E70A4626490346D1E9B5
:107B00000001181842EB010100234FF47A7219F0BA
:107B100033FC034601A80193FFF7F4FE1E4804F06E
:107B20004FF80028BBD01D4801F0C6FE0028B6D093
:107B300001A90622194801F0F7FEB0E70023184911
:107B400018482B7009F060FB164903A809F06AFC7D
:107B5000134903A8012209F013FD0028B3D02146E0
:107B6000212203A809F06AFB03A809F0C3FDFFF76F
:107B70005FFD1DB0BDEC028B30BD00BF6075002005
:107B80009C7B0020D0720020A10EEA3C14710020E2
:107B90009C75002068750020DC870020047500209B
:107BA000B44704009C9C00202DE9F04F2DED048B80
:107BB000DFF8B0B3DD4C8BB0B0EE409AF0EE608AE7
:107BC00010F0FCFEDBF800309842C0F02C81D4E9C4
:107BD0000067D7499FEDD77AD1ED007ACBF8000046
:107BE00039EE678A3218B4EEC78A47F10003F1EE26
:107BF00010FACDE9002348BFC1E90A230B7A81EDD1
:107C0000018A002B63D19FEDCC7AB4EEC78AF1EEE6
:107C100010FA40F3E580DDE90023C1E90C234FF0C1
:107C200000084FF00009F0EE086A88EEA67AF7EE39
:107C3000006AB4EEE67AF1EE10FA88BFB0EE667A2A
:107C400027EE087AF5EEC08A77EE877AF1EE10FA21
:107C500039EE678AC1ED007A81ED018A1CDD87EE7D
:107C6000286AF0EE007AF4EEE78AF1EE10FAD1ED30
:107C7000107ADFEDB25ADCBFF6EE006A68EEA66A53
:107C800036EE677AE7EE267AF4EEE57AF1EE10FA50
:107C900040F31681C1ED105ADFEDA97AB4EEE78A00
:107CA000F1EE10FA40F1CF8000234FF416724B45ED
:107CB00008BF4245C0F0C780D1E9049A59EA0A03D7
:107CC00040F05481DDE90034C1E90434BFE0D1E97A
:107CD000087891ED0F8A00204FF000094FF0000A5C
:107CE00091ED107AE8EE877A39EE677AC1ED007A85
:107CF000B5EEC07AF1EE10FA81ED017A00F18280E2
:107D0000DFED8C7AB4EEC87AF1EE10FAB4EEE77AD1
:107D100044BFB0EE478A81ED0F7AF1EE10FA34DC01
:107D200000220023C1E90623DDE90056EB1B029384
:107D300066EB08030393DDE90256002342F210725A
:107D4000B34208BFAA429FED7F8A80F0AF80002334
:107D50000022C1E90423009B81ED009A0026F0EE89
:107D6000488ADD1B0E72002876D1002E6FD0F0EE0F
:107D7000480AB0EE680AAAB2384641460BB0BDECDC
:107D8000048BBDE8F04FFFF77BBED1E9062352EA32
:107D9000030500F08680009DAD1A0495019D65EBFA
:107DA00003050595DDE90456002E08BF962DBBD3CB
:107DB000D51BA5F5967641F614639E424FF0000C54
:107DC0004FF000024FF00003C1E90423D1ED0E8A09
:107DD00081F808C08CBF002601260028C5D03BE0F2
:107DE000D1E90C32DDE90056B5EB030866EB020978
:107DF00000234FF416724B4508BF42451BD2F6EEE6
:107E0000006A12E777EEC97ADFED4F0AD1ED0E6A0C
:107E1000B1EEE76A68EEA08AF0EE667AE6EE287ABE
:107E2000C1ED0E7A6CE7D4E900321E1C42F1010765
:107E3000C4E90067CDE6DFED427AB4EEE78AF1EE01
:107E400010FA3FF539AF00220023C1E904230BB03B
:107E5000BDEC048BBDE8F08FDFF80C9199F8193078
:107E60005A1E022A3FD999F81A30002B3FF47DAFF1
:107E7000364B01221A7010F0A1FDDBF80030984259
:107E8000C0F09480D4E90034CDE906341A46234684
:107E900012182F49CBF8000043F10003C1E9002379
:107EA00063E7DDE90023C1E906233DE70026F0EEA4
:107EB000488A35464F46D04600283FF456AFCBE7B8
:107EC0009FED247AF4EEC77AF1EE10FA48BFF0EE97
:107ED000477AC1ED107ADFED1A7AB4EEE78AF1EE57
:107EE00010FAB0D5E0E61C491C4AC95C32F813A070
:107EF000022013F0E5FC10F061FDDBF80030984241
:107F000060D3D4E9001C10EB0A024FF0000343F1E8
:107F10000003CDE90023019BCBF800005218104963
:107F200043EB0C03C1E900239DE700BF087100206B
:107F300008600020000070C2000020C20000C8429B
:107F4000000016C3000000008FC2353F807500207E
:107F5000887500200000C8C29848040090480400BA
:107F60009075002010710020D0720020DDE90056CD
:107F7000B5EB0903089366EB0A030993DDE90823CF
:107F8000002B08BF642AFFF462AF00270120002203
:107F900000238F63C1E9089AC1E90623D1ED007A75
:107FA00081ED0F8A08724F46D04699E6D4E9003237
:107FB0000033069342F101030793DDE90623C4E988
:107FC000002365E7D4E90032191C42F1010CC4E931
:107FD000001C98E72DE9F04F01209FB013F0A4FE9C
:107FE000DFF894B3DFF894A3B0FA80F5044610F0FC
:107FF000E5FCDBF8003098424FEA551555D3DAE935
:108000000067321847F10003D04FCBF800003978F1
:1080100054B9002940D0CE4E3178002900F0478174
:108020003D701FB0BDE8F08FE1B9CA4E317800292C
:10803000F6D0C94CD4E90004B2EB000863EB0409A4
:1080400000234FF4C8724B4508BF4245E8D20129CE
:1080500033D0022900F09880002333703D701FB0A8
:10806000BDE8F08FBA4909780029DED1BB48D0E9D4
:108070000010511A009163EB00010191DDE900014C
:10808000002908BF1F28D0D3B248B34C0178013172
:10809000C4E900230170C3E7B048AD493D70C0E9B1
:1080A00000230C701FB0BDE8F08FDAE900321E1C0F
:1080B00042F10107CAE90067A3E7032013F034FD8A
:1080C0000C2013F02BFD08244FF00008202013F0A3
:1080D0005BFD013C8044F9D14FEAD80307EE903AAA
:1080E0009FED9F7AF8EEE77A40F6E44267EE877AF2
:1080F000FCEEE77A17EE903A9BB2934275D940F6C0
:10810000AB52934240F28980B3F5616FC0F0AB800F
:1081100040F67362934240F2AA8040F6A562934211
:1081200040F2A98040F6D762934240F2A88040F620
:108130000972934240F2AB8040F63B72934240F2A8
:10814000A280B3F57A6FC0F0AE8041F20302934291
:1081500040F2A58041F26702934240F29C804FF0CA
:108160000408C821032013F0ABFB782010F032FC88
:108170000021032013F0A4FB0134B42010F02AFCEA
:10818000E3B29845EDD867E7764C77497748002306
:10819000C4F81D3009F038F8744905A809F042F90F
:1081A000714905A8012209F0EBF968BBFFF740FA15
:1081B000DC21022013F084FB3C2010F00BFC00219A
:1081C000022013F07DFB642010F004FCDC2102206F
:1081D00013F076FB3C2010F0FDFB0021022013F091
:1081E0006FFB642010F0F6FB36E7C821032013F084
:1081F00067FB782010F0EEFB0021032013F060FBFA
:10820000B42010F0E7FB27E72146212205A809F05A
:1082100015F805A809F06EFAC8E7012240F6AC513E
:10822000DFF85CE1DFF85C811EF8020002F1FF3C40
:108230001EF80C2038F81CC0801AA3EB0C0303FBBB
:1082400000F3A1EB0C01B3FBF1F31344DBB24A2BB7
:1082500085D8312B02D94FF0030882E7182BC4D9F7
:108260004FF002087DE702224FF46161D8E7032254
:1082700040F67461D4E7042240F6A661D0E70522F7
:1082800040F6D861CCE7072240F63C71C8E70622E9
:1082900040F60A71C4E70A2241F26801C0E70922E8
:1082A00041F20401BCE708224FF47A61B8E72B4899
:1082B000D0E90010511A63EB000303930291DDE94A
:1082C0000201002340F6B7328B4208BF8242BFF45E
:1082D000A7AE204B26481C700123337000F040FEEF
:1082E00023483C2100F070FD2146214800F0D2FDDA
:1082F000FF21022013F0E4FA10F060FBDBF80030FD
:10830000984241D3DAE9001410F178034FF00002EB
:1083100052415B181749CBF8000044EB0202C1E957
:1083200000320324C821032013F0CAFA3C2010F0C5
:1083300051FB0021032013F0C3FA013C3C2010F054
:1083400049FB14F0FF04EDD16AE600BFF070002095
:10835000F1700020E0700020D8700020E87000204C
:10836000F11CDE3FD0720020B44704009C9C00202A
:108370001C8E0020907500201071002008710020D4
:108380006C48040078480400DAE90032191C42F114
:108390000104CAE90014B7E72DE9F04F2DED028B77
:1083A000B54FA1B010F00AFB39688842C0F08C804C
:1083B000B249D1E90045B24938600E78241845F138
:1083C0000005002E40F0D980AE4B1A780AB3AE4AB1
:1083D0000021197013889BB2002B40F0B5804FF438
:1083E0001673AA4EAA49AB48A6F81B300022C6F85D
:1083F0001D2008F009FFA74907A809F013F8A449B0
:1084000007A8012209F0BCF8002840F06F81FFF7AF
:108410000FF9A14B1A78002A40F003819F4B1A787C
:10842000002A40F0E8809E4A13889BB24BB1138823
:108430009C4E9BB2E01845F10001C6E90001002303
:108440001380994E377A002F47D1D6E9042313437E
:108450007DD0964B9FED968A1B784FF028094FF000
:10846000000A0127002B42D1FFF7B4FDFFF748F8BF
:10847000337A8BB98F4BD3E90021A21A029265EBB4
:1084800001020392DDE9028900214EF65F20494591
:1084900008BF4045C0F0E080874B1B7863B9874A2E
:1084A000804B50681C681568596845EA040240EA28
:1084B0000103134300F0D5800A2010F08BFA21B09D
:1084C000BDEC028BBDE8F08F6C4BD3E900160C1CA1
:1084D00046F10105C3E900456DE79FED758A4FF050
:1084E00028094FF0000A714B1B78002BBCD0DFF835
:1084F000F081D8E90023A11A009165EB03010191F5
:10850000DDE90001514508BF4845ADD3134307D00D
:1085100018F0ECFE9FED6A8A07EE900A27EE888A33
:10852000DFF8C0914846C8E900450FF083F80028FD
:108530009AD0D9E9020118F0C1FDF0EE480A00EE28
:10854000100AFFF731FB8FE713889BB249E7D6E9A2
:108550000A32E31A049365EB02030593DDE9042371
:10856000002B08BFB2F5FA6FFFF473AF9FED558A89
:108570004FF064094FF0000AB5E75348DFF86891FF
:10858000524B534AB9F8007000260E7000684FF441
:108590007A78A0FB0801B0EB040A61EB050B01211E
:1085A000C2E900AB197017B34A4F02E0484BD3E958
:1085B00000ABB3B203EB43034FF47A7257F81300E6
:1085C00007EB4303E8FB00AB9B88ADF82030504637
:1085D0000023594618F0D0FE034607A8079301363A
:1085E000FFF790F9B9F80020B3B29A42DED8002321
:1085F000A9F80030E8E60022254926481A7008F05C
:1086000003FE244907A808F00DFF214907A801220D
:1086100008F0B6FF002872D12F49304803F030FA35
:1086200001E700221A491B481A7008F0EDFD1949AC
:1086300007A808F0F7FE164907A8012208F0A0FFD6
:1086400000283FF4EBAE1149212207A808F0F6FDFF
:1086500007A809F04FF8E1E6C3E90045FFF756F82F
:108660001AE7012013F060FB00283FF425AF002F2C
:1086700014BF1420322020E7107100200871002060
:10868000C0870020C187002098750020D07200208C
:10869000B44704009C9C0020C3870020C2870020B0
:1086A000707500207875002008600020A4870020E5
:1086B0000BD7233D007100208075002090750020AD
:1086C0006F12833ACDCCCC3D5C75002060750020E4
:1086D000687500209C750020D4720020DC87002083
:1086E000F8700020D07100209C7B002031462122B0
:1086F00007A808F0A3FD07A808F0FCFF87E60449D7
:10870000212207A808F09AFD07A808F0F3FF83E7E5
:10871000D072002010B5044B044640F8083B02F02C
:1087200007FD204610BD00BFD848040010B5074B18
:10873000044640F8183B00F015FD2046044B40F875
:10874000083B02F0F5FC204610BD00BF7C49040048
:10875000D848040010B5044B044640F8083B02F02A
:10876000E7FC204610BD00BFD8480400F0B5514ECC
:108770005149524C524F534D85B0684602F0F8FCB7
:108780006946304602F0B4FC684602F0D1FC22464D
:108790004D49304618F020F84C494D4E684602F0DD
:1087A000E7FC6946384600F0DBFF684602F0C0FC93
:1087B00022462946384618F00FF84649464F684683
:1087C00002F0D6FC6946304600F0CAFF684602F067
:1087D000AFFC22462946304617F0FEFF3F49404E87
:1087E000684602F0C5FC6946384600F0B9FF6846A5
:1087F00002F09EFC22462946384617F0EDFF394923
:10880000394F684602F0B4FC6946304600F0A8FFD4
:10881000684602F08DFC22462946304617F0DCFF00
:108820003249334E684602F0A3FC6946384600F0F0
:1088300097FF684602F07CFC22462946384617F02E
:10884000CBFF2C492C4F684602F092FC694630461B
:1088500000F086FF684602F06BFC2246294630464F
:1088600017F0BAFF2549264E684602F081FC69469A
:10887000384600F075FF684602F05AFC2246294649
:10888000384617F0A9FF1F4D304603F079FA22460B
:108890001D49304617F0A0FF284603F023FA1B4974
:1088A0002246284617F098FF19480EF0D5FD05B06E
:1088B000F0BD00BFA88700200C4804000060002025
:1088C000047500206591020015870200FC47040032
:1088D000AC7400203C480400F47200202C480400D2
:1088E000547400201C480400FC7300205C48040001
:1088F000A47300204C4804004C730020EC47040093
:108900008871002018710020558702002D87020011
:10891000D0710020F8B5774C774E784F784D2046CF
:10892000042102F0E7FE00222046012102F012FF9E
:108930002046002103F01AF92046002103F0C8F870
:108940002046704903F09CF820466F4901F0D8FC9E
:1089500020466E4901F0D6FC30466D49062203F0F0
:108960000BFA30466B490D2203F0FEF905226A49E5
:10897000304603F0FDF9304603F038FA6748684E98
:1089800003F0D4F9384602F097FB2846102100F096
:108990002BFF00222846112100F03EFF2846062129
:1089A00000F026FF284600F0F7FB30460A2100F0D1
:1089B0001BFF11221146304600F02EFF3046F021F9
:1089C00000F016FF574D58490122304600F02AFFAB
:1089D000304600F0E1FB28461A2100F005FF112285
:1089E0001146284600F018FF2846022100F000FF3B
:1089F0004E4E4F490122284600F014FF284600F051
:108A0000CBFB3046082100F0EFFE11221146304624
:108A100000F002FF3046022100F0EAFE454D4649D3
:108A20000122304600F0FEFE304600F0B5FB28463D
:108A3000082100F0D9FE11221146284600F0ECFE74
:108A4000284614213D4E00F0D3FE01223C49284621
:108A500000F0E8FE284600F09FFB3046082100F0B9
:108A6000C3FE11221146304600F0D6FE30460221E8
:108A7000344D00F0BDFE01223349304600F0D2FEF5
:108A8000304600F089FB2846082100F0ADFE112297
:108A90001146284600F0C0FE2846042100F0A8FE3A
:108AA00001222A49284600F0BDFE284604F5C86583
:108AB00000F072FB2846062100F05AF93946284694
:108AC00000F012F904F27C6000F024F9284601213C
:108AD00000F080F9284640F26462A02100F076F9A7
:108AE00028461E2100F070F928460021BDE8F84014
:108AF00000F0D0B9DC87002088710020A887002012
:108B000004750020D4720020C5720200C9720200F0
:108B1000CC470400D4470400E44704001871002047
:108B2000AC740020F47200208173020054740020A1
:108B30001D730200FC73002055730200A473002013
:108B4000CD7202004C7300203D73020001730200DD
:108B500010B50221012013F045F80121022013F085
:108B600041F80021022012F0ABFE0121032013F096
:108B700039F80021032012F0A3FE01210B2013F08D
:108B800031F801210B2013F0B1F801210D2013F071
:108B900029F801210D2013F0A9F801210C2013F070
:108BA00021F801210C2013F0A1F801210E2013F06F
:108BB00019F800210E2013F099F825480DF0CCFF8C
:108BC000FEF7FEFEFEF732FC22480EF0FBF9214ACA
:108BD000214877210EF0EEFCB0B1204B1E48012257
:108BE00002211A700EF07CFD00211B480EF06AFD78
:108BF000002119480EF082FDFFF78CFEFEF718FDEC
:108C0000BDE81040FEF782BD124A134876210EF0EF
:108C1000D1FC0028E1D1114B05241870C821032094
:108C200012F04EFE3C200FF0D5FE0021032012F082
:108C300047FE3C200FF0CEFE631E13F0FF04EDD183
:108C4000FFF768FEFEF7F4FCBDE81040FEF75EBDDE
:108C50009C9C002044AD0020D0710020A4870020FF
:108C600072DF704773DF704774DF704777DF7047DC
:108C700038B5054608460C4602F088FA102803D09D
:108C800080280ED0012038BDEB7FA2881B2B0EDC84
:108C9000E9180320E85448704A80EB7F0433EB77EF
:108CA000F0E7A368002BEDD0E97F0D2901DD00205E
:108CB00038BD6A18112068540721517058681C6823
:108CC0009968DB68C2F80E30C2F80600C2F80240AC
:108CD000C2F80A10EB7F1233EB77012038BD00BFDA
:108CE0000022C2770270704730B5D1E9042485B004
:108CF000CD68074B00936946CDE902240195FFF743
:108D0000B7FF0446684602F013FA204605B030BDAE
:108D1000F0480400F0B589B00646202213486946A1
:108D200002F0C2FEF37FC2181D2A0CDDC3F11D0440
:108D3000E4B2E2181D2A4FF00005D8BF082705DD70
:108D4000284609B0F0BD044601250927F218601C29
:108D5000F05469465770901C224618F087FDF27F48
:108D6000023214442846F47709B0F0BDDC870020B5
:108D7000C27F1C2A01DD0020704710B403469C18F6
:108D8000022098540120A1706070DA7F0332DA77F4
:108D90005DF8044B704700BF10B4084A084C0949FD
:108DA00002620022C0E90A41C0E90C225DF8044BCE
:108DB0000270C27742628263704700BFFF01010008
:108DC0002000F40020001E00C185704701858185C8
:108DD0004285704780F82210704700BFF0B51546F5
:108DE00005EB8503274A89B0044603EB8303002083
:108DF0000E469B0011680290CDE90460ADF8143076
:108E000094F821308DF80830CB07CDE906000390A7
:108E100009D41D491D4BC87FE77F988101201C6044
:108E200099609F801060194902AA04F12000FFF7A1
:108E300017FF10B1002009B0F0BD94F820101448BD
:108E4000019102F08FFE019902460120FFF70EFF0B
:108E50000028EFD194F820000121FFF703FF00283C
:108E6000E8D10B4802F0EEFE628EA68595424FF0E7
:108E7000010094BF521B921A628684F8230009B045
:108E8000F0BD00BFC4870020588E0020C887002096
:108E9000DC870020F0B5002361F30F032D4D04465D
:108EA00061F31F4389B00363FA21284602F062FE92
:108EB000E68D2949278D0868049706EB860303EBA6
:108EC000830300229B000592ADF8143094F8213002
:108ED00002928DF80830C307CDE9062203920BD425
:108EE0001E4BE27F95F89B069A8005F27C65012275
:108EF0001C609D6098810A60184902AA04F1200054
:108F0000FFF7AEFE10B1002009B0F0BD94F82010BC
:108F10001048019102F026FE019902460120FFF758
:108F2000A5FE0028EFD194F820000121FFF79AFE5A
:108F30000028E8D1074802F085FE638EA7859E428F
:108F40004FF0010094BF9B1BDB1A638684F823005B
:108F500009B0F0BDDC870020C4870020C88700204E
:108F600010B5044690F82000FFF77EFE08B10020FF
:108F700010BD84F82300024802F078FE012010BDE5
:108F8000DC87002030B50B888D88112B85B0044616
:108F900005D0262B33D0102B25D005B030BD436A29
:108FA000EB40DB07F9D52E4801F08AF90028F4D10F
:108FB000636A94F82310012202FA05F523EA0503F7
:108FC00063620029E9D194F82230002BE5D0238E8A
:108FD00023486386FA2102F0CDFDE28D218D2046E3
:108FE000FFF7FCFED9E7CB7B012BD6D1426A03FA0F
:108FF00005F515430023456280F82330CDE70B7A51
:10900000012BCAD1002380F823304FF4FA711448A1
:1090100002F0B0FD238E5BB1658E95B1A36B0BB1F1
:109020009847658E618D2A462046FFF7D7FEB4E744
:10903000A36B03B19847618D00222046FFF7CEFE57
:10904000ABE7074802F012FE626B002AA5D000953C
:1090500003AB29462846039512F01AFB9DE700BF93
:10906000DC87002075DF704710B44FF010144FF408
:1090700048010022C0E90041C0E902225DF8044B2A
:10908000704700BF014800F021BF00BFCC8E002018
:10909000F8B500250D4F2E4601E0142D14D0A9B2CD
:1090A000384602F0B7FD013504460028F5D000F03F
:1090B000BBFD0028F1D0204600F0C0FD022804BF0F
:1090C0000136F6B2142DEAD13046F8BDDC87002017
:1090D00070B58E881B480C4694B0314602F09AFD5C
:1090E00023881A2B05D01F2B1CD0102B0FD014B0A7
:1090F00070BD054600F09AFD0028F8D0284600F023
:1091000097FD0028F3D1284600F0F8FDEFE7694607
:1091100000F0DCFD0028EAD06A4631460A4801F03A
:1091200067FCE4E754F8080F61686B4603C33046F8
:10913000BDF80030ADF802306946FFF793FF14B078
:1091400070BD00BFDC870020FC870020AADF7047CD
:10915000ABDF7047ACDF7047ADDF7047AEDF704705
:10916000B0DF704710B5044B044640F8043B01F0F3
:10917000DFFF204610BD00BFA848040010B5054B16
:10918000044640F8043B01F0D3FF204611F066FF8F
:10919000204610BDA848040070B57B4B04461B68F0
:1091A000836196B0043002F001F894F82E30A06983
:1091B00013F0320208BF84F82F2013F00C0308BF0D
:1091C00084F830300DF10102694601F0A7FF94F8F0
:1091D0002F209DF8010015070DD09DF8001002F01A
:1091E0000F0301F00F059D424FEA12126DD243EAC0
:1091F000021284F82F2094F8303019070BD003F0B6
:109200000F0100F00F058D424FEA131369D241EAB6
:10921000031384F8303094F82E1011F0300340F02E
:1092200096800FAD0F93C5E90133C5E903338DF87F
:109230003C10AB610021ADF809109DF80A10206ABE
:109240001493012363F342018DF808208DF80A106E
:1092500008B1037873BB94F8263013B104F12603E8
:10926000129394F831200023D2070893079358BF34
:10927000E38AADF81C3004F1080004F12F01CDE9B8
:10928000050154BF1846E08AADF82000294604F1D4
:109290003203E569099505AA0020FFF757FF054647
:1092A00028B994F8253043BB237D002B64D0284691
:1092B00016B070BD109019F0DCF902AB80B2ADF8B9
:1092C0004400ADF846001393C5E74FEA111101D1F0
:1092D00091428CD30A462B4643EA021284F82F208F
:1092E00089E74FEA101001D1984290D303462946EE
:1092F00041EA031384F830308DE7ADF80D009DF896
:109300000E2094F82F600C90012363F3420242F682
:1093100008118DF80E208DF8123004AA0223ADF842
:10932000101003A90D90ADF83030ADF834300A922A
:1093300004F124030B910DF102020AA98DF80C60CF
:109340000E93FFF705FF0028AED00546AFE70F4BA1
:109350008DF805200FAD1B788DF804300220002316
:109360000F938DF80600C5E90133C5E90333AB61FE
:109370008DF83C1001AB5DE72146054800F062FF27
:10938000284616B070BD00BFD88700209C48040056
:109390001C8C00202DE9F0410B888E88502B8AB060
:1093A0000C46054609D0512B04D18B79012B19D0DD
:1093B000022B26D00AB0BDE8F081CB88428E9A42BB
:1093C00035D0EA8E9A42F5D16B6D002BF2D095F82C
:1093D0004420648A920700F18A802246294630465A
:1093E0009847E7E7836C002BE4D090F844205207BD
:1093F00001F108076CD43A46294630469847A379CC
:10940000D6E7A27B042A46D0062A20D0012AD1D151
:10941000EB6C002BCED095F84420170704F108041C
:1094200000F1A5802246294630469847C2E7076DDD
:10943000002FC6D090F84430D90768D404F1120840
:10944000238A424629463046B847E388B9E7EA6BA3
:10945000002AAFD0002202A93046CDE90222CDE990
:109460000422ADF80C208DF80830FFF779FE2C6D42
:1094700054B195F84430D80700F19280B5F84230E5
:10948000EA6B30462946A047E86B0FF0D9FA002373
:10949000C5E90F338EE7E86B002878D0B5F84010A7
:1094A000278A628A07EB020C00234FF0020E8C45DC
:1094B000CDE90633CDE908338DF818E039DD40F207
:1094C0000913ADF81C3006A93046FFF749FE71E7D5
:1094D00003211A46009106AB08213846CDE90665FE
:1094E000089712F0D5F8002889D1AB6C83E70320E8
:1094F00000211A46009006AB0846CDE9066508949F
:1095000012F0C6F800287FF455AF6B6D65E7218A2D
:10951000069604F11208042300933A46404606AB2F
:10952000CDE90881079512F0B3F800288DD12F6D91
:1095300086E79DF81EC0ADF81C3004F114014CF014
:1095400001033844ADF822208DF81E300991ADF8A2
:10955000207018F08BF9238A618AB5F842200B44F9
:109560009BB2934238BF1346A5F84230ABE70321C4
:109570001A46009106AB0E212046CDE906650894F7
:1095800012F086F800287FF415AFEB6C4AE74FF431
:1095900080600FF03BFA4FF48061C5E90F017FE76F
:1095A000E86BB5F84210069604230093224606ABFA
:1095B000CDE90750099112F06BF800287FF464AFF1
:1095C0002C6D5BE72DE9F04F0F464FF6FF718F4290
:1095D00089B0064615461C4626D0F18A96F82E30EC
:1095E0008C4228BF0C46DB0615D40DF1100B8C42C3
:1095F00028BF0C464FF00008718EADF810405A4657
:109600004FF6FF700595ADF81280FFF7A3FD4046B9
:1096100009B0BDE8F08F3948394602F0E3FA08B1E5
:10962000F18E31B9F18AE0E7344802F0E7FA0746F3
:10963000D3E7002002230DF1100BADF81200ADF8B6
:1096400010305A460DF10E0338460593FFF784FD9E
:1096500043F2014398424FD000284AD19DF80E8032
:1096600008F00108B8F1000F46D02448394602F04E
:10967000D1FA8246A0B300F0E3FA033883B2002C9B
:10968000C5D0CDF804804FF00009984605E0BDF83C
:109690000E30E41AA4B21D4444B3504600F0E4FA7C
:1096A000A04503464246594628BF22463846BBB12C
:1096B000ADF80E204FF00102738E8DF812200DF1DF
:1096C0000E02CDE90625CDF813908DF81790ADF870
:1096D0001030FFF743FD0028D9D0504600F0CEFAF5
:1096E0004FF00008404609B0BDE8F08FDDF8048077
:1096F0008DE700F00108B5E7F18A78E7DC87002004
:1097000010B5154B044640F8043B01F019FD134A0F
:109710000023127884F8443014200321A384C4F871
:109720002630C4F82A3084F82E30E082C4E90F33A2
:10973000C4E91233C4E9143384F831102375A361EA
:109740002362E36163866363238784F82F2084F8B0
:109750003020204610BD00BFA84804009C480400EB
:1097600070B44E68164A86600260D1E90262154BF9
:10977000154D1C7845600261142500220321C0E9C3
:109780000F22C0E91222C0E91422C660C58280F807
:10979000311080F844200275826102628284C0F830
:1097A0002620C0F82A2080F82E20C261428642631B
:1097B000028780F82F4080F8304070BC704700BFAF
:1097C000A84804009C480400F048040010B4D1E903
:1097D0000142CB680361C0E902425DF8044B704767
:1097E00001230375704700BF80F82E10704700BF3B
:1097F000C182704741B190F83130C182002262F3DA
:10980000000380F83130704790F83130012262F364
:10981000000380F83130704780F82F1080F8302036
:10982000704700BF90F84430016562F3000380F890
:109830004430704751F8322F0260496841607047E8
:1098400030B5C48A83B0944223460D4628BF1346E0
:10985000418E019500246A464FF6FF70ADF8003046
:10986000ADF80240FFF776FC18B9BDF8000003B070
:1098700030BD204603B030BD30B5C38A85B00A463E
:10988000012B28BF0123418E8DF8072000240DF104
:10989000070502AA4FF6FF70ADF80830ADF80A4090
:1098A0000395FFF757FC18B9BDF8080005B030BDA7
:1098B000204605B030BD00BF30B5044685B019481C
:1098C00002F09CF994F82E3013F0100302D11846E0
:1098D00005B030BD05460146124802F083F9002864
:1098E000F6D0E18E11B9084605B030BD0DF1060382
:1098F00028460024022502AA0393ADF80A40ADF8D9
:109900000850FFF729FC43F20143984205D030B9D3
:109910009DF8063003F00100DAE72046D8E700F0B2
:109920000100D5E7DC87002010B490F82E4014F039
:10993000100407D013465DF8044B0A464FF6FF713A
:10994000FFF740BE20465DF8044B704700B590F825
:109950002E3083B013F010038DF8071009D00123C7
:109960000DF107024FF6FF71FFF72CFE03B05DF813
:1099700004FB184603B05DF804FB00BFA1DF70478D
:10998000A3DF7047A4DF704700238383704700BFC5
:10999000006A00F0E3B800BF808B70472DE9F0410A
:1099A0000B88CE88382B86B00C46054606D0392B5E
:1099B00066D0362B43D006B0BDE8F08100F1240715
:1099C000002E36D10A8A3846314602F0E3FA94F87E
:1099D0000C80B8F1010F2CD0B8F1040FEBD1286A3C
:1099E00000F0BCF801465C4802F014F900F028F9D8
:1099F0002A8E053883B2934228BF1346002B00F00D
:109A00009A80218AE289286AAC8B8DF80D600A441D
:109A1000E96A05918DF80C80ADF81230ADF8102090
:109A2000ADF80E4000F09AF803A9FFF7A9FF00284F
:109A3000C1D0384602F0C6FA06B0BDE8F081006A2F
:109A400000F08CF80146444802F0E4F800F0F8F821
:109A500007466EBB05F12406E289304604F1100189
:109A600002F098FA2B8E2BB1F81EE38980B20138F0
:109A7000834255DA304602F0A5FA06B0BDE8F0811F
:109A80000B7B012B1AD0022B95D1836B002B92D02C
:109A900090F83C208F8892071FD401F11006E289CC
:109AA00031462846984761893846FFF76BFF82E7C1
:109AB00005F12407384602F085FABDE7436B002B19
:109AC0003FF479AF90F83C20D10717D404F1100689
:109AD000E2893146284698476DE7C989039004F129
:109AE000100603201A46009003AB3046CDE904610E
:109AF00011F0CEFD0028D6D1AB6BD0E7E189039001
:109B000004F1100603201A46009003AB3046CDE95D
:109B1000046111F0BDFD00287FF44DAF6B6BD7E7FA
:109B2000286A00F01BF86A8EA98B92B2FFF726FF15
:109B300000289FD13FE7AA8B286AADF80E2040F29B
:109B40000511ADF80C10CDE9043300F007F803A9B6
:109B5000FFF716FF6DE700BFDC87002080887047A5
:109B60008FDF704790DF7047B1DF7047B5DF704718
:109B700010B5074B03600446806A0FF0A9FDE06A48
:109B80000FF0A6FD206B08B10FF0A2FD204610BD1E
:109B9000C048040010B5094B03600446806A0FF00A
:109BA00097FDE06A0FF094FD206B08B10FF090FD77
:109BB000204611F053FA204610BD00BFC0480400F3
:109BC00070B504460D4692E80300A5800E0CA06116
:109BD000A183144DA67717201B2156892560E080AC
:109BE0009589D089E181D17965810122227522741C
:109BF000A08161741846194626819DF810500EF018
:109C0000C9FF2946A06228460EF0C4FF4FF48851D0
:109C100000234FF6FF72E182E06262822363637584
:109C2000204670BDC0480400007D7047407D7047ED
:109C3000C07D113818BF0120704700BF407C7047BD
:109C4000C0887047008970474B7D10B44BB11F31FD
:109C50000C688A888B79046082805DF8044B83717C
:109C600070471831F4E700BF08B56621806A0FF02D
:109C7000B3FB003818BF012008BD00BF08B50023A2
:109C80001A461946806A0EF0B7FF003818BF012047
:109C900008BD00BF818800F11F02407C02F0D8B9E6
:109CA00038B50A4605460C468188407C02F0BCF96E
:109CB0002146012051F8483FC5F81F308B888A792A
:109CC00085F82520A5F82330687538BD38B50A46D3
:109CD00004460D4600F11801407C02F0EFF9607572
:109CE00050B1294651F8483FC4F81F308B888A7913
:109CF00084F82520A4F8233038BD00BF10B5447D7A
:109D000024B100F11F01407C02F0B6F9204610BDDD
:109D100070B50B88113B82B00C460546462B2BD8FC
:109D2000DFE803F0383B2A2A2A2A2A2A2A422A2A4A
:109D30002A2A2A2A50585E642A2A2A2A2A2A2A2AC1
:109D40002A2A2A2A2A2A2A2A2A2A2A2A2A672A94CC
:109D50002A2A2A2A2A2A2A2A2A2A2A2A2A2A2A2A63
:109D60002A2A2A2A2A246A2A752C84000023A888F1
:109D70001A461946FFF7F8FE02B070BD8B79002B2A
:109D8000FAD1006BAB750028F6D01A4619460EF0D2
:109D900033FFF1E700230375EEE74B8903818B89DD
:109DA0004381CB898381E7E70B7AC375112BE3D01D
:109DB000818800F11F02407C02F038FA0346002837
:109DC000DAD1D4E7002301A98088ADF80430FFF789
:109DD000C7FED1E70B7A002BCED14B7A0374CBE7C9
:109DE000002211468088FFF7BDFEC5E70B89C381BD
:109DF000C2E74B89C380BFE7006B0123AB75002826
:109E0000BAD000231A4619460EF0F6FEB4E7417C9C
:109E1000164801F0F7FEE3880146994228BF19462B
:109E200089B2A888E980FFF7A1FEA5E78B79002B0E
:109E3000A2D0002600231A461946A86A0EF0DCFEBE
:109E40000136A279F3B29A42F4D895E78B7A002BC7
:109E500092D0002600231A461946E86A0EF0CCFE7E
:109E60000136A27AF3B29A42F4D885E7DC87002063
:109E700070B58AB086880B4606A84FF42851144660
:109E800005934FF6FF7501F065F90120CDE9010555
:109E9000059B0094314606AA044800F06FF804467A
:109EA00006A801F045F920460AB070BD1C8C0020C0
:109EB00010B50446043002F009F8034B2360002378
:109EC0002375204610BD00BF0100FFFF017D01B1D9
:109ED000704710B50446043002F002F801232375E0
:109EE00010BD00BF007D70470B88322B10B504D029
:109EF000332B17D0302B08D010BDCB88DBB1041D1D
:109F00002046BDE8104002F05DB8CB88041D002B50
:109F1000F6D14B89002BF3D00A3120460A2202F0F9
:109F200039F8EDE7CB88002BE9D14A89002AE6D041
:109F300002EB420204E04A89002AE0D002EB8202EE
:109F40005200041D023292B20A31204602F022F879
:109F5000D6E700BFA0DF704710B5044600F5F870E3
:109F600001F0B4FF2046F822002117F0A7FCF822E8
:109F7000A018002117F0A2FC204610BD2DE9F047E3
:109F800082B00546BDF82C60BDF830402048ADF8E1
:109F90000460BDF828A0ADF80640904699460F46EB
:109FA00001F038FE05F5F875064603E0FFF74AFEB6
:109FB0000EF010FD284601F0EBFF04463046002C61
:109FC000F4D10121284601F08BFF5246494628462C
:109FD00001F0A2FF08F10401384601AAFFF7BAFF19
:109FE00030B1284601F086FF204602B0BDE8F08778
:109FF0004FF4FA71284601F095FF20EAE0742846F4
:10A0000001F078FFA4B2204602B0BDE8F08700BF9F
:10A01000DC8700202DE9F04F8F880D8885B08846B9
:10A0200004463946864801F0F5FDA5F11003012BE1
:10A03000814640F2908094F854203AB3002633468B
:10A040001633502D54F823A069D0512D1AD198F809
:10A050000630B8F808B0022B53D0BBF1000F11D076
:10A0600051466846FFF7E6FBBDF800305B4559D026
:10A07000514602A8FFF7DEFBBDF80C305B4551D01E
:10A0800094F854200136F3B29342D9D394F84C316A
:10A09000002B00F0D18004F5A679002604E094F8A6
:10A0A0004C310136B34220DD59F8040FFFF770FC44
:10A0B000B842F4D1382D03D0392D01D0362DEED150
:10A0C000B8F80AA0BAF1000FE9D0D9F800B05846A4
:10A0D000FFF762FC5045E2D158464146FFF75EFC6F
:10A0E00094F84C310136B342DEDC112D55D0352DBC
:10A0F00004D1B8F80A30002B40F08F8005B0BDE8DD
:10A10000F08F98F80E30062BA7D1DAF800305046C1
:10A11000DB68414698474846FFF78AFDB0E7B8F844
:10A1200006B09AE7DAF800305046DB6841469847B7
:10A130004846FFF77DFD0028A2D0502DA0D1514602
:10A1400002A8FFF777FBBDF80C305B4598D1484675
:10A15000FFF7A0FD94E72378002B3FF46CAF0026B7
:10A16000112D33460CD004EB83033946586803683D
:10A170005B68984701362278F3B29A42F3D85AE7DF
:10A1800004EB83033946586803681B689847013617
:10A190002278F3B29A42F3D84DE7D3B10026334682
:10A1A00005E094F84C210136F3B29A4211D904EB40
:10A1B0008305D5F85001FFF7EBFBB842F1D1D5F894
:10A1C0005001FFF7E1FB013694F84C21F3B29A42BB
:10A1D000EDD894F8F820002A90D000252B4604EB07
:10A1E0008303D3F8FC008388BB420AD00135EBB26D
:10A1F000934283D204EB8303D3F8FC008388BB42F1
:10A20000F4D103681B689847013594F8F820EBB245
:10A210009342E4D305B0BDE8F08F04F5F874B8F8C4
:10A220000C20204608F1100101F0B4FE204605B0D4
:10A23000BDE8F04F01F0C6BE112D7FF458AFC8E75E
:10A24000DC87002090F85420272A0CD810B403464D
:10A2500002F11604013280F8542043F82410012042
:10A260005DF8044B70470020704700BF0378132B44
:10A2700006D800EB83020133037001205160704760
:10A280000020704778DF70477ADF7047054A034641
:10A2900092E80300002283E80300C3E90222184683
:10A2A000704700BFC848040008B5FFF7EDFF08B1CC
:10A2B000002008BDFFF7E6FFB0FA80F0400908BDB6
:10A2C000F8B500250D4F2E4601E0142D14D0A9B28B
:10A2D000384601F09FFC013504460028F5D0FFF711
:10A2E000A3FC0028F1D02046FFF7A8FC012804BFFA
:10A2F0000136F6B2142DEAD13046F8BDDC870020D5
:10A3000081607047C1607047704700BF8ADF704747
:10A3100030B40D4CC4621F25002250248584A02532
:10A32000C0E91122C0E90F22A0F84650A0F8484029
:10A33000006230BC8262028680F838204263C264C8
:10A34000A0F85020704700BF000180002DE9F04FB9
:10A3500010468DB016460C4600F018FFC5B2102D01
:10A360004FD0B66807220623A16994F81C9001918A
:10A370008DF80D208DF80C30ED080DF10C080DF165
:10A380000E0A0027B9F1010F0A97CDE90477CDE94C
:10A390000677CDE90877CDF82B700ED998F8000034
:10A3A00001994B464A7882420FD00A78D44323441D
:10A3B000013213F0FF031144F4D108F10108C24542
:10A3C000E0D100200DB0BDE8F08F11F8024B013C48
:10A3D000E4B2224604A817F049FA0DF1100B1CB99B
:10A3E000EBE714F0FF04E8D058462A46314617F050
:10A3F0002FFA641BAB440028F3D101200DB0BDE857
:10A40000F08F043603220223AEE700BF2DE9F043AC
:10A410000B888E88103B87B00D4604460D2B2CD838
:10A42000DFE803F077072B2B2B2B2B2B2B2B2B84ED
:10A430002B2E836AF340DB071FD55648FEF728FE14
:10A44000D8B9A36A94F82C20012505FA06F623EA68
:10A450000606A6628AB994F82D3073B11F232462D0
:10A46000A38404F1200104F14400FFF74FFF20B959
:10A47000494801F0E7FB84F82C5007B0BDE8F083B1
:10A4800090F92E2091F91B309A423ADC90F838303E
:10A4900001F108080BB3DFF80491002602E0D6B200
:10A4A000B34218D9636BCDF8089003EB061302AAE8
:10A4B00059680391D3E902734146204605930497F6
:10A4C000FFF744FF074602A800F032FE94F8383048
:10A4D000721C002FE3D09E4213D094F82F30002B33
:10A4E00049D095F82430012B0BD9296A4A78FF2AE4
:10A4F00030D00A78D0430344013213F0FF031144F3
:10A50000F4D104F120010020FFF700FF07B0BDE8FF
:10A51000F083CB7B022BB0D1836A012202FA06F6CC
:10A5200033430022836280F82C20A6E70B7A012BAC
:10A53000A3D1002580F82C50174801F097FB226C1E
:10A54000002A9AD0009502AB29462846029511F0C0
:10A550009FF892E711F8025B6A1ED2B2022A28BF66
:10A56000022202A817F082F9012DCAD0228EBDF86E
:10A5700008309A42C5D1E26B002A3FF47EAF012336
:10A580000093404602AB2421CDF8088011F080F8FA
:10A5900073E700BFEC870020DC870020F048040050
:10A5A00046DF70477FDF704780DF704781DF70478D
:10A5B00085DF704786DF704738B51C460D46034679
:10A5C000114628462246984734B1014600222846C3
:10A5D000BDE83840FFF7E8BF38BD00BF10B50C46F6
:10A5E00082B003466946204698476A4620460121C4
:10A5F000FFF7DAFF02B010BD10B50446083002F0D4
:10A600003FF8074B2360032200232271C4F8103463
:10A61000C4F81434C4F81834C4F81C34204610BDEF
:10A620003507100330B50446ADF55F7D00F1080530
:10A630008F4801F0B9FF0821284602F025F8684646
:10A6400002F02CF86846082102F02CF869462846EA
:10A6500001F0CAFF04F54F714122684602F030F85C
:10A66000684602F029F894F85C0394F85B2394F8A8
:10A670003D1394F83E3384F83D0384F83E2394F868
:10A680005A0394F8592394F83F5384F85C1384F8E0
:10A690005B3394F8401394F8413384F83F0384F813
:10A6A000402394F8580394F8572384F85A5384F8B5
:10A6B000591394F8425394F8431384F8410384F8EF
:10A6C000583394F8560394F8443384F8422394F8AA
:10A6D000552384F8575384F8430384F8442384F8BB
:10A6E000553384F8561394F8451394F8540394F8AA
:10A6F000532394F8463384F8450384F8462394F8AA
:10A70000520394F8512394F8475384F8541384F86F
:10A71000533394F8481394F8493384F8470384F882
:10A72000482394F8500394F84F2384F8525384F844
:10A73000511394F84A5394F84B1384F8490384F85E
:10A74000503394F84E0394F84C3384F84A2394F829
:10A750004D2384F84F5384F84B0384F84C2384F83A
:10A760004D3384F84E1394F85D1394F87C0394F8F9
:10A770007B2394F85E3384F85D0384F85E2394F8B9
:10A780007A0394F8792394F85F5384F87C1384F85F
:10A790007B3394F8601394F8613384F85F0384F892
:10A7A000602394F8780394F8772384F87A5384F834
:10A7B000791394F8625394F8631384F8610384F86E
:10A7C000783394F8760394F8643384F8622394F829
:10A7D000752384F8775384F8630384F8642384F83A
:10A7E000753384F8761394F8651394F8740394F829
:10A7F000732394F8663384F8650384F8662394F829
:10A80000720394F8712394F8675384F8741384F8EE
:10A81000733394F8681394F8693384F8670384F801
:10A82000682394F8700394F86F2384F8725384F8C3
:10A83000711394F86A5394F86B1384F8690384F8DD
:10A84000703394F86E0394F86C3384F86A2394F8A8
:10A850006D2384F86B03012084F86F5384F86E1322
:10A8600084F86C2384F86D330DF55F7D30BD00BF37
:10A87000688F00200B7803F0FE03042B01D000202A
:10A88000704770B515468CB00C462022002104A8F4
:10A8900017F014F828686968AA68EB686D460FC558
:10A8A0009DF800109DF80F209DF801609DF80E5056
:10A8B0009DF802008DF80F1023469DF80D108DF8BD
:10A8C00000209DF803208DF80E608DF801509DF852
:10A8D0000C609DF804508DF80D008DF802109DF865
:10A8E0000B009DF805108DF80C209DF80A208DF8BE
:10A8F00003608DF80B508DF804008DF805208DF85D
:10A900000A109DF8061033F8042FADF810209B783C
:10A910009DF809209DF81D009DF810609DF81F50BE
:10A920008DF809108DF806209DF811109DF81E2055
:10A930008DF81D309DF807308DF812008DF81F60DE
:10A940009DF808009DF813608DF810508DF81E10CA
:10A950009DF81C509DF814108DF811208DF80830CA
:10A960009DF81B209DF81A308DF807008DF81C60AB
:10A970008DF813509DF815608DF81B108DF814207C
:10A9800068468DF815309DF819109DF817209DF830
:10A9900018309DF816508DF818208DF816108DF887
:10A9A00017308DF81A608DF81950FFF7F9FD6278AD
:10A9B0009DF82F309DF82E009DF82D108DF8210068
:10A9C0009A428DF8221004F1010404D0012080F095
:10A9D00001000CB070BD6278C3B29A4204F1010468
:10A9E000F4D16278CBB29A42F0D10020EFE700BFF9
:10A9F00008B5137CDB0758BF1C32084602F1120170
:10AA0000FFF7D6FDB0FA80F0400908BDF0B58F8899
:10AA10000E46ADF56B7D04463946464801F0FAF81E
:10AA20003388133B0546072B2FD8DFE813F03E0091
:10AA30005F006D002E002803870008003100337A84
:10AA4000B3B9737B9B070ED4294602A8FFF7FCF825
:10AA50000299BDF80C209DF80E3084F80C34C4F82F
:10AA60000614A4F80A24284604F2BE31FFF718F9A8
:10AA7000D4F818244AB1307A0D90022300210093B3
:10AA800008460CAB0C9710F003FE0DF56B7DF0BD86
:10AA9000D4F81C24002AF8D0012300210093084692
:10AAA0000CAB0C9710F0F4FDEFE704F2BE3304F2A8
:10AAB000DA320C9304F2F63300251092119304F26B
:10AAC0003D3204F27E330F921393CDE90D5512956A
:10AAD000FFF7B4F801280CBF22462A460CAB2946E2
:10AAE0003846FFF75FFD0DF56B7DF0BD0CA9FFF754
:10AAF000EDF80346002800F0D2820CA93846002366
:10AB00001AAAFFF757FDC0E7D4F810140029BCD0EB
:10AB1000B37B094A03F001030F930423CDE90C171B
:10AB200006F10800009306210CAB0E9010F0B0FD6A
:10AB3000ABE700BFDC870020B9A5020094F87E33A4
:10AB400094F89D2394F87FC394F89C6394F8805301
:10AB500094F89B0384F89D33042194F89A3384F885
:10AB60007D1384F87E2394F8811394F8822384F86B
:10AB70009CC384F87F6394F899C394F8836384F842
:10AB80009B5384F8800394F8985394F8840384F8D2
:10AB90009A1384F8813394F8971394F8853384F8E2
:10ABA000992394F8962384F882C384F8986384F8F0
:10ABB000835384F8970384F8841384F8852384F8F6
:10ABC000963394F8862394F8953394F887C394F8D1
:10ABD000946394F8885394F8930394F8891384F851
:10ABE000952384F8863394F8922394F88A3384F872
:10ABF00094C384F8876394F891C394F88B6384F8C2
:10AC0000935384F8880394F8905394F88C0384F851
:10AC1000921384F8892394F88F1394F88D2384F881
:10AC2000913394F88E3384F88AC384F8906384F85F
:10AC30008B5384F88F0384F88C1384F88D3384F855
:10AC40008E2394F89E2394F8BD3394F89FC394F810
:10AC5000BC6394F8A05394F8BB0394F8A11384F850
:10AC6000BD2384F89E3394F8BA2394F8A23384F871
:10AC7000BCC384F89F6394F8B9C394F8A36384F8C1
:10AC8000BB5384F8A00394F8B85394F8A40384F851
:10AC9000BA1384F8A12394F8B71394F8A52384F881
:10ACA000B93394F8B63384F8A2C384F8B86384F84F
:10ACB000A35384F8A41384F8B62384F8A53384F846
:10ACC000B70394F8A60394F8B51394F8A72394F85F
:10ACD000B43394F8A86394F8B35384F8B50384F8B4
:10ACE000A61394F8A90394F8B21384F8B42384F853
:10ACF000A73394F8AA2394F8B13384F8B36384F8A3
:10AD0000A85394F8AB6394F8B05384F8B20384F872
:10AD1000A91394F8AC0394F8AF1384F8B12384F822
:10AD2000AA3394F8AD2394F8AE3384F8AD3384F8A5
:10AD3000AE2384F8B06384F8AB5384F8AF0384F88F
:10AD4000AC130CA801F0AAFC0CA8082101F0AAFC85
:10AD500004F27D310CA8412201F0C4FC0CA904AA24
:10AD6000202304F1080001F06DFC0CA801F0A4FC04
:10AD70009DF810109DF82F009DF811309DF82E20A1
:10AD80009DF812609DF82D508DF810008DF82F1051
:10AD90009DF813009DF82C108DF811208DF82E30A1
:10ADA0009DF814209DF82B308DF812508DF82D60F1
:10ADB0009DF815509DF82A608DF813108DF82C0021
:10ADC0009DF816109DF829008DF814308DF82B2071
:10ADD0009DF817309DF828208DF815608DF82A50C1
:10ADE0008DF816008DF817208DF828308DF8291071
:10ADF0009DF818109DF827009DF819309DF8262021
:10AE00009DF81A609DF825508DF818008DF82710D0
:10AE10009DF81B009DF824108DF819208DF8263020
:10AE20009DF81C209DF823308DF81A508DF8256070
:10AE30009DF81D509DF822608DF81B108DF82400A0
:10AE40009DF81E109DF821008DF81C308DF82320F0
:10AE50009DF81F309DF820208DF81D608DF8225040
:10AE60008DF821108DF81F208DF820308DF81E00F0
:10AE700094F87E0394F89D1394F87F2394F89C3300
:10AE800094F8806394F89B5384F89D0384F87E13B0
:10AE900094F8810394F89A1384F89C2384F87F3300
:10AEA00094F8822394F8993384F89B6384F8805350
:10AEB00094F8836394F8985384F89A0384F8811380
:10AEC00094F8840394F8971384F8992384F88233D0
:10AED00094F8852394F8963384F8986384F8835320
:10AEE00084F8841384F8962384F8853384F89703D0
:10AEF00094F8860394F8951394F8872394F8943380
:10AF000094F8886394F8935384F8950384F886132F
:10AF100094F8890394F8921384F8942384F887337F
:10AF200094F88A2394F8913384F8936384F88853CF
:10AF300094F88B6394F8905384F8920384F88913FF
:10AF400094F88C0394F88F1384F8912384F88A334F
:10AF500094F88D2394F88E3384F8906384F88B539F
:10AF600084F88C1384F88E2384F88D3384F88F034F
:10AF700094F89E0394F8BD1394F89F2394F8BC337F
:10AF800094F8A06394F8BB5384F8BD0384F89E132F
:10AF900094F8A10394F8BA1384F8BC2384F89F337F
:10AFA00094F8A22394F8B93384F8BB6384F8A053CF
:10AFB00094F8A36394F8B85384F8BA0384F8A113FF
:10AFC00094F8A40394F8B71384F8B92384F8A2334F
:10AFD00094F8A52394F8B63384F8B86384F8B703DB
:10AFE00084F8A41384F8B62384F8A53384F8A35313
:10AFF00094F8A65394F8A72394F8B43394F8B503BF
:10B0000094F8A81394F8B36384F8B55384F8B42380
:10B0100094F8A95394F8AA2384F8A73394F8B13389
:10B0200094F8B0C384F8A60384F8B31394F8B20379
:10B0300094F8AB1384F8A86384F8B25394F8AC6323
:10B0400094F8AF5384F8B12384F8AA3394F8AD236D
:10B0500094F8AE3384F8A90384F8B013384604A9F1
:10B0600084F8ABC384F8AF6384F8AC5384F8AE23A0
:10B0700084F8AD33FFF79AFA0DF56B7DF0BDD4F887
:10B080001424002A3FF401AD0223002100930C9206
:10B090000CAB064A0D97084610F0FAFAF5E438466C
:10B0A0001A461946FFF786FAEFE400BFDDA5020055
:10B0B000A8DF7047704700BF30B5044683B0083042
:10B0C00000F074F804F10C010DF106020120FFF705
:10B0D000EFFF054628B9044B04481C602146FFF7E2
:10B0E000C5F8284603B030BDD88700201C8C00204E
:10B0F00030B44C68C460D1E90241054A054D026094
:10B10000054A8560C0E90441426030BC704700BF19
:10B11000D8480400F04804000000111183790B7036
:10B12000C3791370704700BF62DF704763DF7047F9
:10B13000704700BF10B504460FF090FF204610BDC9
:10B14000034A02600022C0E90222827182807047B5
:10B15000F048040010B4054C8180002201210460F5
:10B16000C0E902225DF8044B81717047F048040089
:10B17000002210B4044C046081605DF8044B8271BD
:10B180008280C260704700BFF04804008379012BC1
:10B190000AD0826832B9C26822B9012B8CBF8020E4
:10B1A0000020704780207047102070472DE9F0473D
:10B1B000857982B0002D47D1C7680646002F47D059
:10B1C00010200DF023FC8246384617F052FA441E38
:10B1D00030B3DFF88490A84604E00134023C1FD469
:10B1E000102D1DD017F804C0BCF12D0F07EB040281
:10B1F000F3D099F80030ADF805808DF8043012F8DE
:10B20000013C8DF804301022002101A88DF805C002
:10B2100017F0EAFA6B1C023C0AF80500DDB2DFD534
:10B22000C6F808A0BAF1000F0ED0B11D5046FFF7C6
:10B230007BFFB168321D1020FFF778FFB0FA80F075
:10B24000400902B0BDE8F087012002B0BDE8F087F8
:10B25000D0F808A0E6E700BFE44804004DDF7047DF
:10B260004EDF70474FDF704750DF70474BDF70474E
:10B2700010DF70477CDF70477DDF704760DF70470D
:10B2800069DF704761DF704766DF704767DF7047CF
:10B29000704700BF0C2010F069BD00BF30B5224CD4
:10B2A000224D83B0D4F828074FF0FF310EF094F808
:10B2B0000028F7D0C5B101A8FFF7D8FF0528F1D0C5
:10B2C0000028F8D1019B032B1BD8012BF3D918467A
:10B2D0000BF0B4FDEFE70A2B04D0092B21D00B2B88
:10B2E00002D1012005F082FC01A8FFF7BFFF05286D
:10B2F000D8D00028F8D1019BA3F10902022AF3D883
:10B30000E9E7A3F10902022AD5D80A2B04D0092BB8
:10B3100005D00B2BCFD1012005F068FCCBE7022034
:10B32000FAE70220DEE700BFDC8700203D6E030065
:10B330002DE9F04F2DED028B4FF4FA7089B00DF02E
:10B3400065FBB24E00F1080308EE103A054606F51B
:10B35000F06706F5C86AD6F824074FF0FF310EF003
:10B360003BF80028F7D04FF4FA730DF11601284688
:10B37000ADF81630FFF786FF10B10528F3D1EAE7E4
:10B38000B5F80490B9F1130F00F2398106EB890387
:10B39000D3F834473CB129462046FEF7B9FC9C4817
:10B3A0002946FFF733FB2B88013B1B2B5AD8DFE8DC
:10B3B00013F016015900590059005900590059005D
:10B3C00059005900590059005900590059005900B5
:10B3D000B4001C0059005900590059005900590087
:10B3E0005900590059005900A200DFF838824FF087
:10B3F000000B58F8040F30B1FEF716FC18B10BF132
:10B40000010B5FFA8BFBB845F3D1BBF1000F06D1FE
:10B4100096F830371BB159460C2010F067FC2046D7
:10B42000FEF70CFC012800F0EC80F26962B1022307
:10B43000002195F808C00093084606ABCDF8189097
:10B44000CDF81CC010F024F909F5E67806EB880366
:10B45000586810B103685B68984706EB88080023BA
:10B46000C8F8043029465046FDF78CFD6948294646
:10B47000FEF7CCFFB6F832374B452B8800F0B4808E
:10B48000102B1ED02CB32046FEF7D8FB012803D189
:10B490005E482946FEF738FF2046FEF7CFFB02281C
:10B4A0001BD05D48FEF71EFD00BB5C482946FEF739
:10B4B000B1FDD6F88837002B3FF455AF28469847A2
:10B4C00051E7EB7B012BDDD1AB88A6F83237002C9E
:10B4D000D9D14E482946FEF717FF51482946FDF7B6
:10B4E000F7FD4D48FEF7FEFC0028DED04A4829460D
:10B4F000FEF7FAFCD9E7D6F88427002AB2D0022357
:10B50000002195F908C00093084606ABCDF81890C5
:10B51000CDF81CC010F0BCF8A4E74FF00008D6F836
:10B520002C07CDF800804346424603213D4C0FF0E6
:10B53000CDFA54F8040F30B1FEF776FB18B108F1DC
:10B5400001085FFA88F8BC42F3D196F830376BB146
:10B55000B8F1000118BF01210C2010F0C7FB96F8CC
:10B5600030371BB101210C2010F0C0FB09F5E67843
:10B5700006EB8804606820B103685B689847002385
:10B580006360EB7B012B0BBF96F8123796F81837E8
:10B5900096F8134796F81947039334200FF05CFD93
:10B5A00006EB8808039B009418EE102A04464946CF
:10B5B000FEF706FB2046C8F80440FEF73FFB0128D3
:10B5C00032D0B269002A3FF44DAF0123002100932D
:10B5D000084606ABCDF8189010F05AF842E7002163
:10B5E0004846FFF751FE3DE7102B3FF46AAF112BA1
:10B5F0007FF448AF4FF6FF73A6F8323742E70446B0
:10B60000D1E6F268002A7FF412AF1DE7DC87002044
:10B61000FC870020788E0020CC8E00201C8C00201F
:10B62000EC8700200C8F0020B268002A3FF41AAF8C
:10B630000021009006AB0846CDF8189010F028F8CD
:10B6400010E700BF38B50446FEF720FE04F11000F5
:10B65000FDF70AFD04F12000FEF7CEFF04F5886037
:10B66000FEF77AFC04F5C860FDF796FB04F27C60F7
:10B67000FDF736FB04F29C60FEF74AFE04F5DE603F
:10B68000FEF716FC4FF480530025C4F8083716481F
:10B690001649174AC4F80C0740F20113C4F81017F2
:10B6A000C4F81427A4F81837A4F81A5704F2347011
:10B6B0002946502216F002F901224FF6FF73A4F832
:10B6C0001C5784F81E57C4F82457C4F82857C4F8E8
:10B6D0002C57C4F88857C4F8845784F83027A4F846
:10B6E0003237204638BD00BF010A170003000101B0
:10B6F0001700030004290BD8DFE801F00B130B1B24
:10B700000300104BC0F80E3740F20313A0F81237B5
:10B7100070470D4BC0F80E3740F20113A0F81237F6
:10B7200070470A4BC0F80E3740F20113A0F81237E9
:10B730007047074BC0F80E374FF48173A0F81237EB
:10B74000704700BFF70064001700030017000200F5
:10B7500080000600F0B5BF4E80F81C178DB080F851
:10B760001D2704460FF0F6FC0FF0FCFC0FF0BAFCAE
:10B770003369B949039303A8FFF77AFD18B100258F
:10B7800028460DB0F0BD0120FFF76AFD0120FFF74C
:10B7900065FD0120FFF766FD09A8FFF765FD099B20
:10B7A0009B0705D5AD4BD3F80435002B00F0FE8088
:10B7B0000023AB4A94F80D57049209A90120CDE962
:10B7C00009330B938DF82450FFF75AFD0028D6D18A
:10B7D00094F81D370B90CDE90900181E18BF012001
:10B7E00094F81C578DF82700049A8DF8263009A983
:10B7F00040208DF82550FFF743FD0028BFD194F875
:10B800000C170990034661F30003CDE90A00049A7E
:10B810008DF8243009A9A020FFF732FD0028AED111
:10B82000D4F808370A900B90049A099309A9A1202B
:10B83000FFF726FD0028A2D194F81C37002B40F01A
:10B84000B98094F81D37002B48D00023B4F8147742
:10B85000049A0993022509A92320CDE90A338DF81A
:10B860002450ADF82670FFF70BFD002887D1CDE9F5
:10B87000090094F81D77B4F816370B90049A8DF8E8
:10B88000245009A920208DF82670ADF82830FFF744
:10B89000F7FC00287FF473AF0990CDE90A0094F813
:10B8A0001837049A8DF8245009A922208DF82630E3
:10B8B000FFF7E6FC00287FF462AFCDE9090094F8B9
:10B8C00019370B90049A8DF8245009A921208DF87E
:10B8D0002630FFF7D5FC00287FF451AF04A8FFF70E
:10B8E000CDFC00287FF44BAFCDE9070040F0010309
:10B8F00007A902208DF81C30FFF7C8FC00287FF450
:10B900003EAF2046FEF7D0FC054600283FF437AF97
:10B9100004F12000FEF786FE337D52498DF8083091
:10B920000D2202A8FFF7A6FC00287FF428AF94F8A8
:10B930001D37002B40F088800322002101200DF0EC
:10B94000E7F8C4F8240700283FF419AF05AB032635
:10B95000CDE900634449454800234FF4A0620EF04E
:10B9600055F83246002101200DF0D2F8C4F828071E
:10B9700000283FF404AF06ABCDE900633C493D48E5
:10B980000023C8220EF042F83B4B4FF480021A60AD
:10B990003A4B00930023184601224FF480710FF0B8
:10B9A0003FF8C4F82C0700F019FBE9E6022005F087
:10B9B0001DF9FDE60990CDE90A00B4F80E37049AA6
:10B9C000ADF82630012509A923208DF82450FFF772
:10B9D00057FC00287FF4D3AECDE9090094F81C771A
:10B9E000B4F810370B90049A8DF8245009A9202040
:10B9F0008DF82670ADF82830FFF742FC00287FF460
:10BA0000BEAE0990CDE90A0094F81237049A8DF879
:10BA1000245009A922208DF82630FFF731FC002898
:10BA20007FF4ADAECDE9090094F813370B90049A7A
:10BA30008DF8245009A921208DF82630FFF720FC2D
:10BA400000283FF4FEAE9AE604F11000FDF71AFB61
:10BA500072E700BF4C49040091B20200007002403E
:10BA600000600020344904004449040031B302005E
:10BA7000484904009DB2020000E100E095B20200D6
:10BA800000B5084B85B01B7D019108468DF80C3040
:10BA900016F0EFFD019982B203A8FFF7EBFB05B0AA
:10BAA0005DF804FB4C49040000B583B008460DF175
:10BAB0000601ADF80620FFF7DFFB20B99DF8060070
:10BAC00003B05DF804FB002003B05DF804FB00BF89
:10BAD00070B4234B0E4605460FCB85B06C4607C4A9
:10BAE0009DF900202380B24234D09DF90130B34249
:10BAF00030D09DF90230B3422CD09DF90330B342CF
:10BB000028D09DF90430B34224D09DF90530B342CA
:10BB100020D0FEB19DF90730B3421BD09DF908300B
:10BB2000B34217D09DF90930B34213D09DF90A30C2
:10BB3000B3420FD09DF90B30B3420BD09DF90C30BE
:10BB4000B34207D09DF90D30B34203D0002005B0B9
:10BB500070BC7047012085F81E6705B070BC704747
:10BB60006449040090F91E07704700BF80F8301741
:10BB7000704700BF70B5044682B0D0F82C070D4660
:10BB80000EF0D0FF4FF47A7206460023A90DA802EA
:10BB900015F042FC002302460421D4F82C07009340
:10BBA0000EF094FF0EB102B070BD0096D4F82C07D1
:10BBB0003346324603210EF089FF02B070BD00BF4C
:10BBC00070B500F5E66400F5F065002654F8040F42
:10BBD00020B1FEF729F808B10136F6B2AC42F5D132
:10BBE000304670BD132906D800EB8101D1F8340727
:10BBF00008B1FEF719B80020704700BFB0F832074F
:10BC0000704700BF01290CBFB0F80E07B0F8140749
:10BC1000704700BF13299ABF00EB8101D1F83407A8
:10BC20000020704710B5064C0021D4F828070DF00D
:10BC300047FAD4F824070021BDE810400DF040BABF
:10BC4000DC87002090F8303703B9704710B582B018
:10BC5000D0F82C470EF0CAF8002302460093204685
:10BC600001210EF033FF02B010BD00BFF0B583B06C
:10BC7000002405462346D0F82C07009422460321D1
:10BC80000EF024FF05F5E66605F5F06756F8040F9B
:10BC900020B1FDF7C9FF08B10134E4B2BE42F5D1CD
:10BCA00095F8303743B1211E18BF01210C2003B095
:10BCB000BDE8F04010F01AB803B0F0BD0148FFF73E
:10BCC000C1BC00BFDC8700200020704708B51830D9
:10BCD000FDF7D2FD003818BF012008BD1830FDF770
:10BCE00035BE00BF30B585B0044641F60F01684649
:10BCF000FFF730FA69462046FFF7FAF9254668460D
:10BD0000FFF716FA084B45F8183B684642F619212A
:10BD1000FFF720FA69462846FDF722FD6846FFF73F
:10BD200007FA204605B030BD7C49040030B583B029
:10BD30000446FFF7C1F908B103B030BD0546122132
:10BD400004F118000190FDF74FFD01982A461121DA
:10BD5000FDF762FD01980121FDF74CFD019803B04C
:10BD6000BDE83040FDF718BAC16180F83D2070474A
:10BD7000416280F83F207047016380F8422070479D
:10BD800070B584B0044641F60A016846FFF7E2F94F
:10BD900069462046FFF7ACF96846FFF7C9F9204627
:10BDA0000E4B40F8183B2422002115F087FD0C4E65
:10BDB0000C480D4AE06200232364E36384F84430B6
:10BDC0000D25062113232046E66184F83D5084F8B2
:10BDD0004110226384F8423004B070BDAC490400C5
:10BDE0003449040088490400904904002DE9F047D3
:10BDF0009AB00646FFF760F98046002846D1336ABC
:10BE0000002B4ED0736A002B56D0C6F5275909F186
:10BE1000270906F1140406F1380706F13C0554F829
:10BE2000043F04A873B3FDF76BFC2268B36B09EB06
:10BE300005019A4289B2684608BF42F65021FFF7D1
:10BE400089F9694604A8FDF7C1FC6846FFF770F957
:10BE500004A8FDF7C5FC022104A8FDF7C5FC29785C
:10BE600004A8FDF7C7FC04A8FDF796F9824604A8CC
:10BE7000BAF1000F0ED12A782168FDF7E1FC04A881
:10BE8000FDF770F9BC4205F10105C8D140461AB072
:10BE9000BDE8F087FDF766F9D04640461AB0BDE828
:10BEA000F0870FF09FFC044616F0E3FB736A3462E0
:10BEB00086F83E00002BA8D10FF054FC044616F083
:10BEC000D8FB746286F83F009FE700BF0022012183
:10BED0004270C0E901220170C2818281704700BFB7
:10BEE00010B50446017001B110BD0A200CF052FEDD
:10BEF000606010BD037810B5044643B100230122F1
:10BF00006370C4E90133E381A381227010BD4068EE
:10BF10000DF0DEFBF2E700BF002381608281C38168
:10BF2000704700BF037870B504460D46B3B9466844
:10BF3000012363704FF47A720023A802A90D15F053
:10BF40006BFA014630460DF047FA98B9237800267F
:10BF50004FF0FF356670A3B9284670BD032200215B
:10BF600001200CF0D5FD064660600028E0D14FF0BE
:10BF7000FF35F1E7E58923780026ADB26670002B26
:10BF8000EAD060680DF0A4FB6660284670BD00BF73
:10BF90004078704738B504468089824228BF0246FF
:10BFA000154619B1A06815F061FCA089E389A26863
:10BFB00015FA83F3401B9BB22A44A081E381A2605F
:10BFC000284638BD406820B100231A4619460CF0B7
:10BFD00013BE7047B1DF7047B2DF704708B50F4836
:10BFE0000AF0BAFD0E490D4805F09AF828B10D493E
:10BFF0000A4805F095F850B108BD0949074805F011
:10C00000ABF80849054805F08BF80028F4D1BDE8E5
:10C0100008400449014805F09FB800BF9C9C0020DF
:10C02000B8490400CC49040070B586B00E4603231D
:10C030000021054614460093044A0496084603ABC3
:10C04000039505940FF024FB06B070BD15C30200E4
:10C0500070B586B00323144606460D46009310467D
:10C0600003AB044A05940721CDE903650FF010FBEB
:10C0700006B070BD45C4020030B50A4691B089795A
:10C080005379039111790293D378094D094C0191A9
:10C0900000939378527801280CBF2946214604A8C2
:10C0A00016F092FA04A9044805F0AEF811B030BDBC
:10C0B000E0490400104A04009C9C00202DE9F04354
:10C0C000D1B00B78032B04AF0D460446904668D9D7
:10C0D0005A08022A5ED14F4A4F49504BDFF8489127
:10C0E000012818BF11460022381D05F065FA4B499A
:10C0F00007F1680005F096F907F1CC0611E0024659
:10C10000414607F1680005F07FFA08F13802294638
:10C110004846FEF7AFFB044678BB07F1680005F020
:10C12000E9FA0022391D304605F016FB07F1D00070
:10C130000DC8D7F8DC10D7F8E4407B67D7F8E830B3
:10C1400097F8E0C0F8663A67B967412207F1EC0159
:10C1500007F18800C7E9204387F87CC015F086FB0B
:10C1600007F1680005F0F2FA044607F1680044B1EF
:10C1700005F0F8F85028D0D1C1E707F1680005F0C4
:10C18000B9FA381D05F0B6FA204607F59A77BD468C
:10C19000BDE8F0830024204607F59A77BD46BDE848
:10C1A000F083E9468CB08979AB786A780391697934
:10C1B0000291297901911A4E1A49E878009004AD4C
:10C1C000012C08BF3146284607F1CC0616F0FCF9D1
:10C1D0001249304605F026F929463046002205F07E
:10C1E000CFF9044650B90024304605F083FA2046C2
:10C1F000CD4607F59A77BD46BDE8F083304605F099
:10C20000B1F8021EEFDD92B24146304605F0FCF96E
:10C21000EAE700BFCC490400B84904009C9C002018
:10C22000E0490400104A0400FC870020F0B5ADB0DE
:10C2300095799378344E1446527803956579029532
:10C2400094F804C0CDF804C0304DE478009404AFF5
:10C250000C4601280CBF3146294607F10C0016F0A8
:10C26000B3F92B4B07F10C0107F13C00002205F05C
:10C27000A3F907F13C0005F069FA40B9002407F181
:10C280003C0005F037FA2046A437BD46F0BD07F163
:10C290003C0005F067F8051E08DD07F13C0005F0DD
:10C2A000F1F9291807F13C0005F0CEF907F13C003F
:10C2B00005F058F8051E08DD07F13C0005F0E2F92D
:10C2C000291807F13C0005F0BFF907F13C0005F023
:10C2D00049F80028D2DDC31D23F007036D46ADEBFE
:10C2E000030D82B204A907F13C00C7E9001205F072
:10C2F0008BF92046D7E900120323FFF76BFEB0FA53
:10C3000080F46409AD46BAE7E0490400104A04002D
:10C310009C9C0020F0B5B5B092F84E5092F84A308F
:10C32000434E144692F84920039594F84D500295D7
:10C3300094F84C50019594F84B5000950D463D49AA
:10C3400004AF012818BF314607F12C0016F03CF964
:10C35000394807F12C0104F0E3FE6E4600284AD16B
:10C36000354B07F12C0107F15C00012205F024F99F
:10C3700007F15C0005F0EAF918B9C437B546BD46C7
:10C38000F0BD502107F15C0005F01AF8502221465B
:10C3900007F15C0004F052FF0023294627487B6127
:10C3A000C7E90333C7E90633C7E90833BB62FFF7C0
:10C3B00031FC07F10C012022FDF75AFD3B7B03B352
:10C3C00007F10C0016F055F9013082B2C1B207F145
:10C3D0005C007A6004F0F4FF7A6807F10C0107F161
:10C3E0005C0004F02BFF07F15C0005F083F9C43713
:10C3F000B546BD46F0BD07F12C010F4804F004FF1F
:10C40000AEE794F8491094F84D3094F84E2003911B
:10C4100094F84A10029194F84B10019194F84C1042
:10C42000009107F10C00064916F0CEF8C8E700BFEE
:10C43000104A0400E04904009C9C0020DC87002096
:10C44000404A04002DE9F043ADB00C4604AF002192
:10C45000032306461546204607F10A027981FFF7B5
:10C46000BBFD7B89E84623B9A437C546BD46BDE878
:10C47000F0830733DB08A8EBC3039D460DF11009D9
:10C48000204607F10A0249460323FFF7A5FD0446AB
:10C490000028E9D1A979AB786A780391697902918A
:10C4A000297901913D483E49ED780095012E08BF5C
:10C4B000014607F10C0016F087F83A4B07F10C0122
:10C4C00007F13C00012205F077F807F13C0005F088
:10C4D0003DF90028C8D0214607F13C0005F0B4F82A
:10C4E00007F13C0004F03EFF041E08DD07F13C00AC
:10C4F00005F0C8F8211807F13C0005F0A5F807F190
:10C500003C0004F02FFF041E08DD07F13C0005F09D
:10C51000B9F8211807F13C0005F096F807F13C0046
:10C5200004F020FF7C8980B2A04213D0E1B207F171
:10C530003C0004F045FF2246494607F13C0004F068
:10C540007DFE07F13C0005F0D5F8A437C546BD4691
:10C55000BDE8F083E31D6D46DB08A5EBC3039D46F4
:10C5600004A9224607F13C00796005F04DF879688E
:10C570007A89484615F06CF908B9AD46E1E707F14C
:10C580003C0005F09BF87B89DB43191807F13C0060
:10C5900005F05AF8AD467C89C8E700BFE0490400C1
:10C5A000104A04009C9C002038B590F8E8500DB16A
:10C5B000284638BD012380F8E830044611F014FB0A
:10C5C0000028F5D12046BDE8384000F0ADB800BFE6
:10C5D00010B5044C204600F0A3F8002384F8E8309E
:10C5E00010BD00BF688F002003680A689A4201D01E
:10C5F0000020704770B5044684B04FF453700D4668
:10C600000CF004FA0646B0B10C4800F0ABF8234633
:10C610000435002153F8042B0095CDE90161084948
:10C6200011F07CF9044630460CF00AFAB4FA84F0B2
:10C63000400904B070BD002004B070BD688F0020B8
:10C64000F9C60300F0B585B006464FF453700D46A9
:10C65000174603930CF0DAF978B1044600903A4695
:10C66000281D311D03AB11F0D7F9054620460CF00B
:10C67000E7F915B9039805B0F0BD002005B0F0BD8D
:10C6800000220260704700BF10B50446084611F052
:10C6900035FA2060003818BF012010BD002202606A
:10C6A000704700BF10B50446084611F027FA206015
:10C6B000003818BF012010BD00230360704700BF81
:10C6C00000B583B00430019201AB0A46042111F099
:10C6D0009FF818B9019803B05DF804FB002003B07F
:10C6E0005DF804FBF0B5044683B04FF463700E466A
:10C6F00017460CF08BF9054678B1019054F8040BFD
:10C7000000943A463146012310F0BEFF0446284605
:10C710000CF096F9B4FA84F0400903B0F0BD00BF04
:10C72000002280F8E420704770B590F8E4400CB126
:10C73000204670BD012380F8E43005464FF4BF5019
:10C740000CF064F906460028F2D03146284610F075
:10C75000BFF90446B4FA84F4304664090CF070F969
:10C76000204670BD704700BF0146014800F056BA30
:10C770007490002038B500F097F940B100240546C8
:10C780002046013400F0C8FDE0B28542F9D838BD3A
:10C7900070B592B01D460C46164601A842220021F3
:10C7A00015F08CF8412D5CD9631C0222DBB28DF8A8
:10C7B00006408DF80E408DF8264040F6083540F2D0
:10C7C00002248DF81E308DF827308DF83130ADF809
:10C7D00004508DF807208DF812208DF833208DF845
:10C7E0003B20ADF80840204A069240F2012505237F
:10C7F0002424ADF810508DF815308DF81640042320
:10C800001A4C8DF81F30012540F224628DF81C501F
:10C810008DF830300894ADF82420154D0A95082382
:10C820004FF411640A228DF82C30ADF82E404023CD
:10C830008DF834200F4C8DF83C3001A9304640F281
:10C84000075540F209464222ADF80C60ADF8385069
:10C850008DF84330CDF83F4015F008F8422012B073
:10C8600070BD002012B070BD200105242402020515
:10C870000705800307058002007EFF280AD010B557
:10C8800000F0F8FC044608B1204610BD0EF020FE72
:10C89000204610BD00207047007EFF280ED000B556
:10C8A00083B00DF1070100F02DFD20B19DF80700C8
:10C8B00003B05DF804FB4FF0FF30F9E74FF0FF30B5
:10C8C000704700BF007EFF280FD000B583B0012263
:10C8D0000DF1070100F0DAFC20B19DF8070003B06C
:10C8E0005DF804FB4FF0FF30F9E74FF0FF30704781
:10C8F000007EFF2801D000F00FBD7047007EFF28AA
:10C9000001D000F069BD0020704700BFF8B50646B1
:10C91000007EFF281CD017465AB10D46144600F081
:10C9200083FC2946224680B1307E00F039FD241A6E
:10C9300001D13846F8BD05440EF0CAFD307E00F046
:10C9400073FC294622460028EED13F1B3846F1E70A
:10C950000020F8BD70B50368184A5B6882B0934246
:10C960008DF8071021D10546007EFF2823D000F066
:10C970005BFC0DF1070601243146224688B1287E72
:10C9800000F00EFD241A02D1012002B070BD064451
:10C990000EF09EFD287E00F047FC3146224600281E
:10C9A000EDD1C4F1010002B070BD01220DF107010B
:10C9B000984702B070BD002002B070BD0DC90200E2
:10C9C00070B592B01D460C46164601A842220021C1
:10C9D00014F074FF412D5CD9631C0222DBB28DF888
:10C9E00006408DF80E408DF8264040F6083540F29E
:10C9F00002248DF81E308DF827308DF83130ADF8D7
:10CA000004508DF807208DF812208DF833208DF812
:10CA10003B20ADF80840204A069240F2012505234C
:10CA20002424ADF810508DF815308DF816400423ED
:10CA30001A4C8DF81F30012540F224628DF81C50ED
:10CA40008DF830300894ADF82420154D0A95082350
:10CA50004FF411640A228DF82C30ADF82E4040239B
:10CA60008DF834200F4C8DF83C3001A9304640F24F
:10CA7000075540F209464222ADF80C60ADF8385037
:10CA80008DF84330CDF83F4014F0F0FE422012B054
:10CA900070BD002012B070BD2001052424020205E3
:10CAA0000705800307058002014B1878704700BF17
:10CAB00070900020037EFF2B02D1074B1A7802B141
:10CAC0007047064902764161012200F110010448D5
:10CAD0001A7000F043B800BF70900020604A040054
